:020000040800F2
:109C00000050002045A4000895A4000895A4000871
:109C100095A4000895A4000895A400080000000081
:109C200000000000000000000000000095A40008F3
:109C300095A400080000000095A4000895A4000861
:109C400095A4000895A4000895A4000895A4000810
:109C500095A4000895A4000895A4000895A4000800
:109C600095A4000895A4000895A4000895A40008F0
:109C700095A4000895A4000895A4000895A40008E0
:109C800095A4000895A4000895A4000895A40008D0
:109C900095A4000895A4000895A4000895A40008C0
:109CA00095A4000895A4000895A4000895A40008B0
:109CB00095A4000895A4000895A4000895A40008A0
:109CC00095A4000895A4000895A4000895A4000890
:109CD00095A4000881A0000895A4000895A4000898
:109CE00095A4000895A400080000000095A40008B1
:109CF00095A4000895A4000895A4000895A4000860
:109D000095A4000895A4000895A4000895A400084F
:109D100095A4000895A4000895A4000895A400083F
:109D200095A4000895A4000895A4000895A400082F
:109D300010B5054C237833B9044B13B10448AFF385
:109D400000800123237010BD5C0000200000000093
:109D5000A4B3000808B5034B1BB103490348AFF394
:109D6000008008BD0000000060000020A4B30008CF
:109D700080B483B000AF0D4B7B6002E07B68013B99
:109D80007B600B4B1B6803F00103002B02D07B6848
:109D9000002BF3D17B68002B01D0002301E04FF0B2
:109DA000FF3318460C37BD4680BC704740420F0059
:109DB0000C20024080B400AF0C4B1B6803F0800302
:109DC000002B05D00A4B0B4A1A60094B0A4A1A604D
:109DD000064B1B6803F08003002B02D04FF0FF33CB
:109DE00000E000231846BD4680BC704710200240AA
:109DF0000420024023016745AB89EFCD80B400AF5A
:109E0000044B1B68034A43F08003136000BFBD4648
:109E100080BC70471020024080B582B000AF7860EF
:109E2000FFF7A6FF0346002B02D04FF0FF3323E0DD
:109E3000134B1B68124A43F002031360114A7B68FC
:109E400013600F4B1B680E4A43F040031360FFF78B
:109E50008FFF0346002B08D0094B1B68084A23F0EC
:109E6000020313604FF0FF3306E0054B1B68044A02
:109E700023F002031360002318460837BD4680BD57
:109E8000102002401420024080B586B000AFF86078
:109E9000B9607A60FB6803F00103002B04D17B6892
:109EA00003F00103002B02D04FF0FF3341E0002309
:109EB0007B6139E0BA687B6913441B781AB27B690D
:109EC0000133B9680B441B781B021BB213431BB24E
:109ED0007B82FFF74DFF0346002B02D04FF0FF338C
:109EE00027E0164B1B68154A43F001031360FB681B
:109EF0007A8A1A80FB680233FB60FFF739FF03465A
:109F0000002B08D00D4B1B680C4A23F00103136093
:109F10004FF0FF330DE0094B1B68084A23F00103A3
:109F200013607B6902337B617A697B689A42C1D393
:109F3000002318461837BD4680BD00BF10200240E0
:109F400080B485B000AF78600B46FB701346BB70E1
:109F50004FF0FF33FB600023BB60FB7803F0070387
:109F60009B000F2202FA03F3DB431A46FB681340FF
:109F7000FB60BA78FB7803F007039B0002FA03F357
:109F80001A46BB681343BB60FB78072B0CD97B6870
:109F90005A68FB681A407B685A607B685A68BB68DD
:109FA0001A437B685A600BE07B681A68FB681A40AA
:109FB0007B681A607B681A68BB681A437B681A6002
:109FC00000BF1437BD4680BC704780B485B000AF79
:109FD00078600023FB6003E000BFFB680133FB6097
:109FE0007B684FF47A7202FB03F3FA689A42F3D368
:109FF00000BF00BF1437BD4680BC704780B483B03B
:10A0000000AF0346FB7100BF074B1B7823F07F03B3
:10A01000DBB2002BF8D0044AFB79536000BF0C3749
:10A02000BD4680BC704700BF0038014080B584B099
:10A0300000AF786039600023FB6009E0FB687A6854
:10A0400013441B781846FFF7D9FFFB680133FB6008
:10A05000FA683B689A42F1DB00BF00BF1037BD468B
:10A0600080BD80B584B000AFF860B9607A6079686F
:10A07000B868FFF7DBFF7B6818461037BD4680BD28
:10A0800080B400AF094B1B7803F02003DBB2002B38
:10A0900007D0064B5B68DAB2054B1A70054B0122FC
:10A0A0001A6000BFBD4680BC704700BF0038014049
:10A0B000780000207C00002080B400AF034B044AED
:10A0C0001A6000BFBD4680BC704700BF08ED00E0CD
:10A0D0000040000880B500AF104B1B68002B18D063
:10A0E0000E4B00221A600E4B1B78DBB2552B12D19F
:10A0F0000C4800F0E7FA6420FFF767FF0221012017
:10A1000000F068F80346002B06D0074800F0DAFAA2
:10A1100002E000BF00E000BF80BD00BF7C00002067
:10A1200078000020BCB30008ECB3000880B500AF95
:10A13000FFF7C2FF44F2140000F08AF80B22092155
:10A140000E48FFF7FDFE04220A210C48FFF7F8FE37
:10A150004FF4E13000F054F90221094800F04CFAC4
:10A16000084800F0AFFAFFF7B5FF0221064800F0FB
:10A1700043FA4FF47A70FFF728FFF4E70008014034
:10A1800004B4000820B400084CB4000880B483B0C4
:10A1900000AF0346FB71FB7903F01F030749FA790F
:10A1A0005209D2B21046012202FA03F341F82030DC
:10A1B00000BF0C37BD4680BC704700BF00E100E027
:10A1C00080B400AF014B024A1A60FEE70CED00E0DC
:10A1D0000400FA0580B588B000AF786039601A4B8A
:10A1E000FB607B683B6100237B610023BB613B68B4
:10A1F000FB61FFF7DFFD0346002B02D04FF0FF337A
:10A200001EE01248FFF708FE0346002B04D0FFF7BC
:10A21000F5FD4FF0FF3313E007F10C03142219464C
:10A220000A48FFF731FE0346002B04D0FFF7E6FD96
:10A230004FF0FF3304E0FFF7E1FDFFF7C1FF00231C
:10A2400018462037BD4680BDEFBEADDE00FC0008DD
:10A2500080B483B000AF7860054B9A6904497B688D
:10A2600013438B6100BF0C37BD4680BC704700BFF5
:10A270000010024080B586B000AFF860B9607A6027
:10A2800000237B610AE0AFF300800146BB685A1CE3
:10A29000BA60CAB21A707B6901337B617A697B68E4
:10A2A0009A42F0DB7B6818461837BD4680BD80B403
:10A2B00083B000AF78604FF0FF3318460C37BD46CF
:10A2C00080BC704780B483B000AF786039603B6871
:10A2D0004FF400525A60002318460C37BD4680BC2C
:10A2E000704780B483B000AF7860012318460C3704
:10A2F000BD4680BC704780B485B000AFF860B960DF
:10A300007A60002318461437BD4680BC70470000B1
:10A3100080B586B000AF7860144A154BD31A7B61C4
:10A320007B693B61134B1B68002B02D1114B124A16
:10A330001A60104B1A687B6813443A699A4207D234
:10A3400000F0EEFA03460C221A604FF0FF3309E0EA
:10A35000084B1B68FB60074B1A687B681344054A6F
:10A360001360FB6818461837BD4680BD00500020BA
:10A370000004000080000020D001002080B487B0DD
:10A3800000AF786039603B68002B01D1002330E0DA
:10A390007A6813469B0013449A001A443B689B005A
:10A3A000B2FBF3F3FB60FB68144AA2FB03235B09D7
:10A3B0007B617B69642202FB03F3FA68D31A1B01F9
:10A3C00032330E4AA2FB03235B093B613B690F2B2F
:10A3D00004D900233B617B6901337B617B699BB2BC
:10A3E0001B019AB23B699BB203F00F039BB213436C
:10A3F0009BB218461C37BD4680BC70471F85EB5189
:10A4000080B584B000AF786079680B48FFF7B6FF7D
:10A410000346FB60094AFB689360084B42F22C023A
:10A42000DA602520FFF7B2FEF968054800F0E4F88D
:10A4300000BF1037BD4680BD00127A0000380140D1
:10A4400064B400080D488546AFF300800C480D4900
:10A450000D4A002302E0D458C4500433C4188C427F
:10A46000F9D30A4A0A4C002301E013600432A242E5
:10A47000FBD300F05BFAFFF759FEFEE70050002027
:10A48000000000205C000020B0B400085C00002048
:10A49000D0010020FEE70000002310B50446C0E90B
:10A4A0000033C0E90433836081814366C2818361E4
:10A4B000194608225C3000F0E5F9054B246263621E
:10A4C000044BA362044BE362044B236310BD00BF43
:10A4D000D5A60008F7A600082FA7000853A7000874
:10A4E000024A0349034800F069B800BF0000002099
:10A4F00011B200080C00002041680C4B10B59942C5
:10A50000044601D000F084FEA168094B994202D0B4
:10A51000204600F07DFEE168064B994204D02046BB
:10A52000BDE8104000F074BE10BD00BF84000020E4
:10A53000EC0000205401002010B50B4B0B4C0C4AD2
:10A5400020461A6004210022FFF7A6FF04F16800EC
:10A5500001220921FFF7A0FF04F1D0000222BDE88B
:10A5600010401221FFF798BFBC010020840000209A
:10A57000E1A40008014800F0FDB900BFC5010020BA
:10A58000014800F0F8B900BFC501002010B504462D
:10A59000FFF7F0FF236A1BB1BDE81040FFF7F0BFE3
:10A5A000044B2362044B1B68002BF5D1FFF7C4FF5B
:10A5B000F2E700BFF9A40008BC0100202DE9F84330
:10A5C0000746884614460026D4E90195B9F10109E9
:10A5D00005D52468002CF7D13046BDE8F883AB8957
:10A5E000012B07D9B5F90E30013303D0294638467F
:10A5F000C04706436835E9E70FB407B5064904AB21
:10A60000086853F8042B8168019300F0D1FA03B075
:10A610005DF804EB04B0704758000020036A70B581
:10A6200005460E4684680BB9FFF7B0FF636EDB0783
:10A6300005D4A389980502D4A06D00F09BF9A389E5
:10A64000190713D523698BB1013EA36816F8011FC2
:10A65000013BA360E9B9002B2EDA22460A212846E5
:10A6600000F07BF8013007D00A2507E02146284694
:10A6700000F0B0F80028E7D04FF0FF35636EDA073E
:10A6800005D4A3899B0502D4A06D00F074F9284677
:10A6900070BD002B04DAA2699A4206DC0A2904D0B4
:10A6A00023685A1C22601970CFE72246284600F022
:10A6B00054F80130C9D1DFE70A2523685A1C22600B
:10A6C0001D70DBE7024B01461868FFF7A7BF00BF0C
:10A6D0005800002010B50C46B1F90E1000F0FCF83F
:10A6E0000028ABBF636DA3891B1823F48053ACBF54
:10A6F0006365A38110BD2DE9F0411F468B89054696
:10A70000DB050C46164605D502230022B1F90E10D2
:10A7100000F0D0F8A389324623F48053A381284661
:10A720003B46B4F90E10BDE8F04100F0E7B810B5B3
:10A730000C46B1F90E1000F0BDF8431CA38915BFFB
:10A74000606523F4805343F48053A38118BFA38131
:10A7500010BDB1F90E1000F09DB8F8B50E461446C4
:10A76000054618B1036A0BB9FFF710FFA369A36090
:10A77000A3891A0725D523691BB323682269F6B27A
:10A78000981A63693746834204DC2146284600F064
:10A790003FFDE0B9A368013BA36023685A1C226017
:10A7A0001E706269431C9A4204D0A389DB0706D558
:10A7B0000A2E04D12146284600F02AFD38B9384631
:10A7C000F8BD2146284600F005F80028D5D04FF006
:10A7D000FF37F4E738B52A4B054618680C4618B120
:10A7E000036A0BB9FFF7D2FEA389B4F90C2018074E
:10A7F00022D4D90607D409232B6042F040034FF03E
:10A80000FF30A38134E0580712D5616B41B104F1E8
:10A810004403994202D0284600F0AEF80023636357
:10A82000A38923F02403A3810023636023692360A9
:10A83000A38943F00803A38123694BB9A38903F4D7
:10A840002073B3F5007F03D02146284600F02DFD8C
:10A85000A089B4F90C2010F001030AD00023A360F2
:10A8600063695B42A361236943B910F08000C4D1DE
:10A8700038BD810758BF6369A360F4E70020F7E79C
:10A880005800002003460244934200D1704703F869
:10A89000011BF9E738B50023054D044608462B6037
:10A8A000FFF705FD431C02D12B6803B1236038BDBF
:10A8B000C001002038B50446084611460022054D67
:10A8C0002A601A46FFF717FD431C02D12B6803B11B
:10A8D000236038BDC001002038B504460846114643
:10A8E0000022054D2A601A46FFF7C4FC431C02D122
:10A8F0002B6803B1236038BDC001002038B5044681
:10A90000084611460022054D2A601A46FFF7A9FBAA
:10A91000431C02D12B6803B1236038BDC001002065
:10A92000014B1868704700BF5800002070B5002622
:10A930000C4D0D4C641BA410A64209D100F032FD51
:10A9400000260A4D0A4C641BA410A64205D170BD16
:10A9500055F8043B98470136EEE755F8043B984715
:10A960000136F2E7A8B40008A8B40008A8B40008AB
:10A97000ACB400087047704738B50546002940D090
:10A9800051F8043C0C1F002BB8BFE41800F0DCF8B1
:10A990001C4A136833B9636014602846BDE8384028
:10A9A00000F0D8B8A34208D9206821188B4201BF13
:10A9B00019685B6809182160EDE71A465B680BB1FE
:10A9C000A342FAD911685018A0420BD12068014463
:10A9D000501883421160E0D118685B680844106029
:10A9E0005360DAE702D90C232B60D6E720682118E0
:10A9F0008B4201BF19685B6809182160636054606D
:10AA0000CBE738BDC801002070B50E4E0C4631684A
:10AA1000054611B900F0A8FC30602146284600F038
:10AA2000A3FC431C0AD0C41C24F00304A04207D09A
:10AA3000211A284600F098FC013001D14FF0FF3474
:10AA4000204670BDCC0100202DE9F843CD1C25F037
:10AA5000030508350C2D38BF0C25002D074601DBFA
:10AA6000A94205D90C2300263B603046BDE8F88397
:10AA7000DFF8D08000F068F8D8F800301C465CBBE6
:10AA800029463846FFF7C0FF431C044655D1D8F885
:10AA900000402646002E45D1002C48D02368314680
:10AAA000384604EB030900F05FFC81453FD1216883
:10AAB00038466D1A2946FFF7A7FF013037D02368C3
:10AAC0002B442360D8F80030002B38D05A68A242BB
:10AAD0002BD100225A600FE02268521B1FD40B2A90
:10AAE00017D96119A342256018BF5960636808BF70
:10AAF000C8F8001062514B60384604F10B0600F0B4
:10AB000029F826F00706231DF21AAED09B1BA3508E
:10AB1000ABE7A3426268DDD1C8F80020ECE723462A
:10AB20006468ACE734467668B4E71346CCE70C2398
:10AB300038463B6000F00EF897E72560DCE75B6085
:10AB4000FFDE00BFC80100200148FFF713BF00BFB0
:10AB5000C40100200148FFF70EBF00BFC401002060
:10AB6000936810B4013B002B936007DA9469A34209
:10AB700001DB0A2902D110BCFFF7EFBD1368581C96
:10AB800010601970084610BC7047F8B506460F46AD
:10AB90001446D518AC4201D1002007E03A463046B1
:10ABA00014F8011BFFF7DCFF431CF3D1F8BD0000D4
:10ABB0002DE9F04F0D461446984606469DB018B153
:10ABC000036A0BB9FFF7E2FC6B6ED90705D4AB89BA
:10ABD0009A0502D4A86DFFF7CDFEAB891B0701D5FE
:10ABE0002B699BB929463046FFF7F4FD70B16B6EB7
:10ABF000DC0704D54FF0FF301DB0BDE8F08FAB8906
:10AC00009805F7D4A86DFFF7B6FEF3E70023099384
:10AC100020238DF8293030234FF00109CDF80C8026
:10AC2000DFF8AC818DF82A3023469A4613F8012BC1
:10AC30000AB1252AF9D1BAEB040B0BD05B462246A8
:10AC400029463046FFF7A1FF013000F0A980099A9C
:10AC50005A4409929AF80030002B00F0A18000239A
:10AC60004FF0FF32CDE905230AF1010A049307935F
:10AC70008DF853301A935446052214F8011B54489A
:10AC800000F082FB049AD8B9D10644BF20238DF886
:10AC90005330130744BF2B238DF853309AF80030FC
:10ACA0002A2B15D0544600204FF00A0C079A214653
:10ACB00011F8013B303B092B4DD9B0B1079214E09C
:10ACC000A0EB080309FA03F31343A2460493D2E767
:10ACD000039B191D1B680391002BBBBF5B4242F015
:10ACE000020207930793B8BF049223782E2B0CD14E
:10ACF00063782A2B34D1039B02341A1D1B680392FC
:10AD0000002BB8BF4FF0FF330593DFF8C8A0032234
:10AD10005046217800F038FB38B14022049BA0EB6C
:10AD20000A00824013430134049314F8011B0622E5
:10AD300029488DF8281000F027FB00283FD0274B2A
:10AD40001BBB039B073323F0070308330393099BC3
:10AD50003B44099368E70C4601200CFB0232A6E74E
:10AD600000234FF00A0C194601340593204610F8D1
:10AD7000012B303A092A03D9002BC6D00591C4E72C
:10AD8000044601230CFB0121F0E703AB00932A46A4
:10AD90003046134B04A9AFF300800746781CD6D188
:10ADA0006B6ED90705D4AB899A0502D4A86DFFF75D
:10ADB000E2FDAB895B063FF51DAF09981CE703ABCD
:10ADC00000932A463046064B04A900F07DF8E4E7DC
:10ADD00073B4000879B400087DB4000800000000D6
:10ADE0008BAB00082DE9F047164699468A680B6937
:10ADF00007469342B8BF1346336091F843200C4690
:10AE0000DDF820800AB1013333602368990642BF20
:10AE1000336802333360256815F0060506D104F166
:10AE2000190AE36832689B1AAB422BDC94F8432082
:10AE3000131E226818BF0123920630D449463846B3
:10AE400004F14302C047013023D02368226903F094
:10AE50000603042B14BF002533684FF0000608BF1B
:10AE6000E56804F11A0408BFED1A54F8123C08BF53
:10AE700025EAE5759342C4BF9B1AED18B5421AD175
:10AE8000002008E00123524649463846C0470130B9
:10AE900003D14FF0FF30BDE8F0870135C1E7302026
:10AEA000E11881F843005A1C94F8451022440233FB
:10AEB00082F84310C2E70123224649463846C0477C
:10AEC0000130E6D00136D9E72DE9FF470F7E9146E4
:10AED000782F80460C469A460C9D01F1430207D814
:10AEE000622F0AD8002F00F0D580582F00F0C180C3
:10AEF00004F1420584F842703AE0A7F16303152B90
:10AF0000F6D801A151F823F061AF000875AF000831
:10AF1000F1AE0008F1AE0008F1AE0008F1AE000895
:10AF200075AF0008F1AE0008F1AE0008F1AE000800
:10AF3000F1AE00087BB00008A1AF000835B00008F2
:10AF4000F1AE0008F1AE00089DB00008F1AE0008B7
:10AF5000A1AF0008F1AE0008F1AE00083DB0000856
:10AF60002B681A1D1B682A6004F1420584F84230E0
:10AF70000123A0E020682B68070603F10401296083
:10AF800001D51E6803E04606FBD5B3F90060002E2C
:10AF900003DA2D23764284F843300A23594812E01D
:10AFA0002B682068191D2960050601D51E6802E07E
:10AFB0004106FBD51E886F2F0CBF08230A2351487A
:10AFC000002184F843106568002DA8BF2168A560A2
:10AFD000A4BF21F0040121600EB9002D4BD015460D
:10AFE000B6FBF3F103FB1167C75D05F8017D37463A
:10AFF000BB420E46F4D9082B0BD12368DE0708D5D7
:10B00000236961689942DEBF302305F8013C05F1F0
:10B01000FF35521B22614B4621464046CDF800A029
:10B0200003AAFFF7DFFE01304AD14FF0FF3004B032
:10B03000BDE8F087236843F0200323607827324877
:10B0400084F84570236829681F0651F8046B02D400
:10B050005F0648BFB6B2DF0748BF43F02003296050
:10B0600048BF23601EB9236823F020032360102308
:10B07000A6E72448E4E71546BDE72B682668181DB7
:10B080006169286035061B6801D5196002E0700609
:10B09000FBD51980002315462361BCE72B680021EE
:10B0A0001A1D2A601D686268284600F06DF908B113
:10B0B000401B606063682361002384F84330AAE783
:10B0C0002A46494640462369D0470130ADD023681F
:10B0D0009B0713D4E068039B9842B8BF1846A6E7C5
:10B0E0000123324649464046D04701309DD00135C4
:10B0F000E36803995B1AAB42F2DCEBE7002504F14D
:10B100001906F5E784B4000895B400088A89F8B5F3
:10B11000054610070C4657D44B68002B04DC0B6C1B
:10B12000002B01DC0020F8BDE66A002EFAD00023D7
:10B1300012F480522F68216A2B6032D0606DA3898F
:10B140005A0705D56368C01A636B0BB1236CC01A2C
:10B1500000230246E66A2846216AB047431CA389B9
:10B1600006D129681D292BD8284A0A41D60727D499
:10B17000002262602269D904226004D5421C01D1F8
:10B180002B6803B96065616B2F600029CAD004F198
:10B190004403994202D02846FFF7EEFB002060638B
:10B1A000C1E701232846B047411CC8D12B68002BBA
:10B1B000C5D01D2B01D0162B01D12F60B2E7A3897A
:10B1C00043F04003A381AEE70F69002FAAD0930795
:10B1D00018BF00230E6808BF4B69F61B0F608B6019
:10B1E000002E9FDD33463A462846216AD4F828C00F
:10B1F000E047002806DCA3894FF0FF3043F040030E
:10B20000A38190E70744361AEAE700BFFEFFBFDFDD
:10B2100038B50B6905460C4613B90025284638BDDC
:10B2200018B1036A0BB9FFF7B1F9B4F90C30002B70
:10B23000F3D0626ED00704D4990502D4A06DFFF755
:10B2400099FB28462146FFF761FF636E0546DA0742
:10B25000E4D4A3899B05E1D4A06DFFF78CFBDDE767
:10B2600070B50C46B1F90E10154600291E4696B071
:10B270000CDAA389002113F0800F0CBF4FF4806318
:10B280004023002031602B6016B070BD6A4600F08C
:10B2900049F80028EDDB019901F47041A1F5005354
:10B2A000594259414FF48063EBE78B8973B59D0791
:10B2B00006460C4607D504F14703236023610123AA
:10B2C000636102B070BD6A4601ABFFF7C9FF009928
:10B2D00005463046FFF7B8FB48B9B4F90C309A057B
:10B2E000EFD423F0030343F00203A381E3E7A38930
:10B2F000206043F08003A381009B20616361019B78
:10B300005BB13046B4F90E1000F01EF828B1A389E5
:10B3100023F0030343F00103A381A3891D43A58107
:10B32000CFE7000038B50023064D04460846114615
:10B330002B60FEF7C7FF431C02D12B6803B12360CB
:10B3400038BD00BFC001002038B50023054D0446BC
:10B3500008462B60FEF7C5FF431C02D12B6803B1E2
:10B36000236038BDC001002038B50023054D0446D8
:10B3700008462B60FEF7CCFF431C02D12B6803B1BB
:10B38000236038BDC0010020034610B5C9B2024495
:10B390009342184601D1002003E0047801338C4227
:10B3A000F6D110BDF8B500BFF8BC08BC9E4670478A
:0CB3B000F8B500BFF8BC08BC9E46704712
:10B3BC004F5441207265717565737465642E205706
:10B3CC00726974696E6720666C616720616E6420B7
:10B3DC007265626F6F74696E672E2E2E0D00000001
:10B3EC004F544120666C61672077726974652066E2
:10B3FC0061696C65642E0D000D0A3D3D3D20617048
:10B40C00702076657273696F6E20256C75203D3DDA
:10B41C003D0D0A0053656E642027552720746F205C
:10B42C00656E746572204F54412028626F6F746C86
:10B43C006F6164657220757064617465292E0D00EE
:10B44C006170702076657273696F6E20256C752043
:10B45C00746573740D0A00004252523A20307825FC
:10B46C0030386C580D0A00232D302B2000686C4CA2
:10B47C000065666745464700303132333435363720
:10B48C003839414243444546003031323334353645
:0CB49C00373839616263646566000000A7
:04B4A800559D0008A6
:04B4AC00319D0008C6
:10B4B00000000000030000008400002000000000E5
:10B4C00084000020EC000020540100200000000057
:10B4D000000000000000000000000000000000006C
:10B4E000000000000000000000000000000000005C
:10B4F000000000000000000000000000000000004C
:0CB5000000000000000000000C00002013
:040000050800A44506
:00000001FF
